:0A0000008316FF2390008312FD2BEE
:10076400831687018312071087100711A201A301C2
:100774002308803ADF0080305F02031DC32B08305A
:1007840022020318F02B83120710013022062304DF
:100794000319D12B023022062304031DD32B871403
:1007A400D42B87104130A100EE30A000A00BD82B31
:1007B400A10BD82B0000831207140130A2070318E1
:1007C400A30A0030A3072308803ADF0080305F02C9
:1007D400031DEE2B08302202031CC52B83120715C0
:1007E4004130A100EE30A000A00BF62BA10BF62B9C
:0A07F40000008312B72B8301B22B23
:02400E00B2FFFF
:00000001FF
